:100C8F00E4F527D2A67F0EFE120C4EC2A67FE07EA1
:0D0C9F0001120C4ED2A67F8C7E00020C4E7E
:100B8200E4F527F528752708C2A6E528C313F5283A
:100B9200D2A630A6034328807F147E00120C4E1585
:0A0BA20027E527D3940050E0AF28A8
:010BAC002226
:020C01008F273B
:100C0300E4F528752808C2A6E5271392A67F147E6B
:100C130000120C4ED2A6E527C313F5271528E528A5
:050C2300D3940050E134
:010C280022A9
:1008E300120C8F7FCC120C017F44120C01120C8F5F
:1008F3007FCC120C017FBE120C01120B828F2612C9
:100903000B82EFFEE526FFC394FFEE940F5005E440
:10091300F5168010EFF4FFEEF4FEEF2401FFE43E42
:10092300FE751601AD07AC06E4120129E4FBFA7962
:0909330080783D12001E120162E1
:01093C002298
:0C0D0100010E00020C0000010F00C102F6
:100D1B00438901E4F58CF58AD2A9D28CD288D2A86A
:030D2B00D2AF2222
:03000B00020DA043
:070DA000758C00758A013219
:030003000206876B
:10068700C0E0C0D075D000C000C004C005C006C01F
:1006970007AF8CEFFEAD8A7C00E42DF50DEC3EF53F
:1006A7000C758C00758A00E50E701ED3E50D94E07D
:1006B700E50C942E4010E50D9468E50C9442500625
:1006C700750E01020753020750E50E6401707AD3D5
:1006D700E50D94AAE50C94054026E50D94B8E50CC4
:1006E700940B501CE50F131313541FFF2408F8C075
:1006F70000E625E0D000F674082FF8E64401802FC5
:10070700D3E50D94BCE50C94024027E50D94AAE5CA
:100717000C9405501DE50F131313541FFF2408F8FD
:10072700C000E625E0D000F674082FF8E654FEF680
:10073700050FE50FC394204013750F00750E00E5F4
:100747000BF4B50A07D2028003750E00D007D00656
:0B075700D005D004D000D0D0D0E0329C
:100D2E00C0F9A4B0999282F880908883C6A1868E6D
:010D3E00BFF5
:060D0D00011500011400B5
:0E0D6E00438910758DFC758B66D2ABC28E2248
:0C0D7C00D2A0D2A1D2A2D2A37580FF2287
:10087400EF14602614603914604C24037060C2A025
:10088400D2A1D2A2D2A3ED7008E510900D2E9380D0
:1008940046E510900D2E93F58022D2A0C2A1D2A2DB
:1008A400D2A3E511900D2E93BD0102802AF580227A
:1008B400D2A0D2A1C2A2D2A3E512900D2E93BD0262
:1008C400028014F58022D2A0D2A1D2A2C2A3E51341
:0F08D400900D2E93BD0305547FF58022F58022F1
:03001B00020A7E58
:100A7E00C0E0C083C082C0D075D000C005C007756D
:100A8E008DFC758B660514E514C39403401875141C
:100A9E00007D04AF15120874E515C39403500405C8
:100AAE00158003751500D007D005D0D0D082D08325
:030ABE00D0E03253
:1009EB00BFC6EEA3B5E7D7D3BFC6BCBC00BFC6EE30
:1009FB00A3B5E7D7D3BFC6BCBC00BFC6EEA3B5E754
:100A0B00D7D3BFC6BCBC00BFC6EEA3B5E7D7D3BF19
:100A1B00C6BCBC00B2E2CAD4CDEAB3C90046696E0B
:0D0A2B006973682074686520746573740039
:070D1300C100C1010117003E
:0C0D8800E5A164A16003D20022C2002299
:100BAD007F01EF602420B205C2A530B2FD20B30550
:100BBD00C2A530B3FD20B405C2A530B4FD20B505E6
:090BCD00C2A530B5FDD2A580D906
:010BD60022FC
:100B25007521017F02120CACE521602420B308D2A7
:100B350001E4F52130B3FD20B409E4F52130B3FD1E
:100B4500120BAD20B5E2C201E4F52120B5DA80FB38
:010B5500227D
:02093D008F2108
:10093F00E4F524F522E522C3952150497F01120CDD
:10094F00C9E4F523E4F5907FC8FE120B567590FFAE
:10095F007F647E00120B560523E523C3940240E407
:10096F00752480E4F523E524F4F590E524C313F50D
:10097F00247F967E00120B560523E523C39409406E
:05098F00E5052280B027
:010994002240
:020589008F21C0
:10058B00E4F524F525F524F525AE24AF257C277D50
:10059B00101203047E037FE8CFCDCFCECCCE120357
:1005AB00048F10AE24AF257C037DE81203047E007C
:1005BB007F64CFCDCFCECCCE1203048F11AE24AF40
:1005CB00257C007D641203047E007F0ACFCDCFCE45
:1005DB00CCCE1203048F12AE24AF257C007D0A1201
:1005EB0003048D13D28EE4F522E522C3952140033B
:1005FB000206817F02120CC9E4F523AF237E007C37
:10060B00047D571202F28E248F257C277D10120356
:10061B00047E037FE8CFCDCFCECCCE1203048F1058
:10062B00AE24AF257C037DE81203047E007F64CFEC
:10063B00CDCFCECCCE1203048F11AE24AF257C00D0
:10064B007D641203047E007F0ACFCDCFCECCCE12B9
:10065B0003048F12AE24AF257C007D0A1203048D98
:10066B00137F2C7E01120B560523E523C3940A40FE
:0B067B008A05220205F4120D7CC28EDD
:010686002251
:020486008F21C4
:10048800E4F524F525F524F525AE24AF257C277D54
:10049800101203047E037FE8CFCDCFCECCCE12035B
:1004A800048F10AE24AF257C037DE81203047E0080
:1004B8007F64CFCDCFCECCCE1203048F11AE24AF44
:1004C800257C007D641203047E007F0ACFCDCFCE49
:1004D800CCCE1203048F12AE24AF257C007D0A1205
:1004E80003048D13D28EE4F522E522C3952140033F
:1004F8000205837F03120CC9E4F5231208E38E2456
:100508008F25E5166005751010801AAE24AF257C7E
:10051800277D101203047E037FE8CFCDCFCECCCE4B
:100528001203048F10AE24AF257C037DE812030468
:100538007E007F64CFCDCFCECCCE1203048F11AE18
:1005480024AF257C007D641203047E007F0ACFCD92
:10055800CFCECCCE1203048F12AE24AF257C007D03
:100568000A1203048D137F2C7E01120B560523E516
:1005780023C3940A408505220204F1120D7CC28E21
:010588002250
:1007EE00752105851722E4F510F511F512F513D2D2
:1007FE008E7F04120CC9E5216066300258C202E5F4
:10080E000AFB7A007C277D10FF7E001203047E0314
:10081E007FE8CFCDCFCECCCE1203048F107C037DDC
:10082E00E8AF037E001203047E007F64CFCDCFCEEF
:10083E00CCCE1203048F11E50A75F06484E5F075D1
:10084E00F00A84F512E50A75F00A8485F0137F012B
:10085E00120CAC1521E5226517609BE4F5218096FC
:05086E00120D7CC28E9A
:010873002262
:020367008F21E4
:1003690078237C007D007BFF7A0979EB7E007F0D85
:100379001202B378307C007D007BFF7A0979F87E20
:10038900007F0D1202B3783D7C007D007BFF7A0A65
:1003990079057E007F0D1202B3784A7C007D007BCF
:1003A900FF7A0A79127E007F0D1202B378577C001A
:1003B9007D007BFF7A0A791F7E007F091202B378DC
:1003C900607C007D007BFF7A0A79287E007F10120D
:1003D90002B3120AF3E4F522E522C39521505F7FA7
:1003E90005120CC97B007A007923E4F574FD120B20
:1003F900D77F207E03120B567B007A007930E4F513
:10040900747D01120BD77F207E03120B567B007A75
:1004190000793DE4F5747D02120BD77F207E03122B
:100429000B567B007A00794AE4F5747D03120BD7E9
:100439007F207E03120B56120D940522809A7B00B1
:100449007A007923757401E4FD120BD77F207E03AE
:10045900120B567B007A0079577574027D02120BD4
:10046900D77F207E03120B567B007A007960E4F572
:0D047900747D03120BD77F207E03020B560B
:100A3800E51714601914601F1460251460291460E8
:100A48002F240570307F0212093D751701227F029D
:100A5800120589751702227F021204867517032270
:100A68001207EE751704227F021203677517052215
:060A78007F05120CAC2208
:100AC100E517146015146017146019146019146087
:100AD1001B2405701C7F0102093D7F010205897FEE
:100AE100010204860207EE7F010203677F05120CF3
:020AF100AC2235
:070DA700D28AD2AAD2AF22CA
:0F0D5F00120D88120B25120D6E120D1B020DA71F
:100D3F00120D5F200105120A3880F8120AC180F3E4
:030013000209954A
:10099500C0E0C0F0C083C082C0D075D000C000C028
:1009A50001C002C003C004C005C006C00720B31BB8
:1009B5007F647E00120B5620B311E517C3940450D3
:1009C500040517800375170030B3FDD007D006D096
:1009D50005D004D003D002D001D000D0D0D082D031
:0609E50083D0F0D0E032E7
:100B5600300014EF1FAA0670011E4A601E7C0B7D32
:100B6600BEDDFEDCFC80ECEF1FAA0670011E4A60AB
:0B0B76000A7C027DC7DDFEDCFC80EC89
:010B81002251
:100C4E0030000CEF1FAC0670011E4C601380F4EEEA
:100C5E00C313FEEF13FFEF1FAC0670011E4C70F6B0
:010C6E002263
:100CAC00AB07AF031BEF6014C2A57F647E00120B71
:0D0CBC0056D2A57F647E00120B5680E62202
:100CC900AB07AF031BEF6014C2A57FC87E00120BF0
:0D0CD90056D2A57FC87E00120B5680E62281
:100C29008F75C2A0C2A1C2A27F047E00120C4E859C
:100C390075807F087E00120C4ED2A27F087E0012BA
:050C49000C4EC2A222C6
:100CE600D2A0C2A1C2A28F807F087E00120C4ED273
:0B0CF600A27F087E00120C4EC2A2225A
:100AF300D2A37F34120C297F057E00120B567F3060
:100B0300120C297F057E00120B567F0C120C297FD5
:100B1300057E00120B567F01120C297F057E000211
:020B23000B566F
:0C0D94007F01120C297F057E00020B5627
:100C6F00EF70047F808013BF01047F90800CBF0260
:100C7F00047F888005BF03027F98EF2DFF020C29A8
:100BD7008B708A718972AF05AD74120C6FAB70AAF6
:100BE70071A9721202D9FF6010120CE67401257206
:0A0BF700F572E43571F57180E42217
:100D4F008F18AE03AF05AD06120C6FAF18020CE68D
:10001E00EC4D6011E8497017ED33EC3304600DE4DC
:10002E00FCFFFEFD22E933E8330470F80201CE1224
:10003E00019958046009E4CC248150062850090225
:10004E0001D82840030201D5C0E0EB4A7044B980C4
:10005E0006D0E0FB0201C4EF4E701CBD8008EBFF22
:10006E00EAFEE9FD80EBE98DF0A4FEE5F002010762
:10007E00E9CDF9EAFEEBFFEF89F0A4FCE5F0CE89BD
:10008E00F0A42EFFE435F0CD89F0A42DFEE435F07A
:10009E008067EF4E7005BD80D780C3EF8BF0A4ACA8
:1000AE00F0EE8BF0A42CFCE435F0F8EF8AF0A42CE3
:1000BE00E5F038FCE433CB8DF0A42CFCE5F03BF8F6
:1000CE00EE8AF0A42CFCE5F038F8E433CF89F0A4E6
:1000DE002CFCE5F038CF3400CE89F0A42FFFE5F0EC
:1000EE003EFEE433C98DF0A42EFEE5F039CD8AF044
:1000FE00A42FFFE5F03EFEE43DFD33D0E0FB5007BC
:10010E000BBB000F0201D8EC2CFCEF33FFEE33FEDD
:06011E00ED33FD0201B00B
:1001240075F020800E75F010800575F0087D007E56
:10013400007F003392D530D503120359EC334010BD
:10014400EF33FFEE33FEED33FDEC33FCD5F0ED225F
:0E015400E5F0247EA2D513CC92E7CDCEFF229B
:10016200EDD2E7CD33EC3392D524814006E4FFFE95
:10017200FDFC22FCE4CFCECDCC24E0501174FF80F4
:10018200EDC3CC13CCCD13CDCE13CECF13CF047091
:07019200F030D5DE02035935
:10019900E9D2E7C933E833F892D5EDD2E7CD33ECAC
:0701A90033FC5002B2D52225
:1001B000EC30E7100FBF000C0EBE00080DBD0004B0
:1001C0000BEB6014A2D5EB13FCED92E7FD2274FF5C
:1001D000FCFDFEFF22E480F8A2D574FF13FC7D80B5
:0301E000E480EFC9
:0300000002076292
:0C076200787FE4F6D8FD7581750207A9C8
:1001E300E709F608DFFA8046E709F208DFFA803EFE
:1001F30088828C83E709F0A3DFFA8032E309F608EB
:10020300DFFA8078E309F208DFFA807088828C8352
:10021300E309F0A3DFFA806489828A83E0A3F60806
:10022300DFFA805889828A83E0A3F208DFFA804CE0
:1002330080D280FA80C680D4806980F280338010B7
:1002430080A680EA809A80A880DA80E280CA803320
:1002530089828A83ECFAE493A3C8C582C8CCC58398
:10026300CCF0A3C8C582C8CCC583CCDFE9DEE78068
:100273000D89828A83E493A3F608DFF9ECFAA9F0E7
:10028300EDFB2289828A83ECFAE0A3C8C582C8CC3D
:10029300C583CCF0A3C8C582C8CCC583CCDFEADE56
:1002A300E880DB89828A83E493A3F208DFF980CCB8
:1002B30088F0EF60010E4E60C388F0ED2402B404B1
:1002C3000050B9F582EB2402B4040050AF23234558
:0602D30082239002337348
:1002D900BB010689828A83E0225002E722BBFE0223
:0902E900E32289828A83E4932256
:1002F200EF8DF0A4A8F0CF8CF0A428CE8DF0A42E20
:02030200FE22D9
:10030400BC000BBE0029EF8DF084FFADF022E4CCDD
:10031400F875F008EF2FFFEE33FEEC33FCEE9DECA6
:10032400984005FCEE9DFE0FD5F0E9E4CEFD22EDEC
:10033400F8F5F0EE8420D21CFEADF075F008EF2F36
:10034400FFED33FD4007985006D5F0F222C398FD27
:050354000FD5F0EA22C4
:0E035900C3E49FFFE49EFEE49DFDE49CFC22B5
:10076E00020D3FE493A3F8E493A34003F68001F255
:10077E0008DFF48029E493A3F85407240CC8C3338C
:10078E00C4540F4420C8834004F456800146F6DF5B
:10079E00E4800B0102040810204080900D01E47EDD
:1007AE00019360BCA3FF543F30E509541FFEE49350
:1007BE00A360010ECF54C025E060A840B8E493A317
:1007CE00FAE493A3F8E493A3C8C582C8CAC583CA42
:1007DE00F0A3C8C582C8CAC583CADFE9DEE780BEFA
:010D1A0000D8
:00000001FF
