:03000000020003F8
:0C000300787FE4F6D8FD75811F02004AEA
:10019C000A0EC0F9A4B0999282F88090040AFEFD70
:0201AC00FBF75F
:1000E400AE08AF097C037DE812008F8F1CAE08AF09
:1000F400097C007D6412008F7C007D0A12008F8DC4
:100104001DAE08AF097C007D0A12008F7C007D0AB9
:1001140012008F8D1EAE08AF097C007D0A12008F7D
:030124008D1F220A
:10012700E4F518F519AF19741C2FF8E6240EF8E654
:10013700F580740A2FF8E6F5A07F027E001201868B
:100147000519E51970020518D39403E518940040C2
:02015700D422B0
:10015900E4F508F509D3E509940FE5089427501744
:100169001200E41201277FE87E031201860509E5E2
:0D0179000970ED050880E9E4F508F509229C
:10018600EF1FAA0670011E4A600BE4FDEDC39471D1
:0501960050EE0D80F7A2
:01019B002241
:10000F00020159E493A3F8E493A34003F68001F2AD
:10001F0008DFF48029E493A3F85407240CC8C333F2
:10002F00C4540F4420C8834004F456800146F6DFC1
:10003F00E4800B010204081020408090019CE47EB4
:10004F00019360BCA3FF543F30E509541FFEE493B6
:10005F00A360010ECF54C025E060A840B8E493A37D
:10006F00FAE493A3F8E493A3C8C582C8CAC583CAA8
:10007F00F0A3C8C582C8CAC583CADFE9DEE780BE60
:0101AE000050
:10008F00BC000BBE0029EF8DF084FFADF022E4CC55
:10009F00F875F008EF2FFFEE33FEEC33FCEE9DEC1E
:1000AF00984005FCEE9DFE0FD5F0E9E4CEFD22ED64
:1000BF00F8F5F0EE8420D21CFEADF075F008EF2FAE
:1000CF00FFED33FD4007985006D5F0F222C398FD9F
:0500DF000FD5F0EA223C
:00000001FF
