:10033A004D002F41542B43574D4F44453D320D0A32
:10034A006026003C41542B43575341503D274553A7
:10035A005038323636272C27303132333435363757
:10036A003839272C31312C300D0A48006441542B7E
:10037A005253540D0A4D000041542B4349504D55D8
:10038A00583D310D0A55001A41542B4349505345E3
:10039A00525645523D312C353030300D0A4D000D44
:0D03AA0041542B43495053454E443D0D0A2C
:0A03B800D2A57F647E007D007C006A
:0603C20090006C1201CF57
:1003C8009000701201DB00000000E47F64FEFDFC79
:1003D80090006CE0F8A3E0F9A3E0FAA3E0FB1201B7
:1003E8006FA804A905AA06AB07900070E0FCA3E07B
:1003F800FDA3E0FEA3E0FFD31201BE4027900070EA
:10040800E0FCA3E0FDA3E0FEA3E0FFE4FAF9F8EFC7
:100418002401FFEA3EFEE93DFDE83CFC9000701235
:0404280001CF80A6DA
:01042C0022AD
:0A042D003EF583E0F5997F057E009F
:04043700AB07AA065F
:10043B009000007C007D0AAF03AE0212015DC3E5A4
:0A044B00829FE5839E5003A380E921
:010455002284
:10000300758920E4F587759850758DFD758BFDD244
:0E0013008ED2ACD2AF900062F0A3F0C20022F9
:10020C00E4F91200037FD07E07120437E9FF33951F
:10021C00E0FE742F2FF582740012042D09E9B40D41
:10022C00EB7FE87E03120437E4F9E9FF3395E0FE37
:10023C00743C2FF582740012042D09E9B426EB7F6F
:10024C00B87E0B120437E4F9E9FF3395E0FE7464D1
:10025C002FF582740012042D09E9B408EB7F887E17
:10026C0013120437E4F9E9FF3395E0FE74002FF51F
:10027C0082740012042D09E9B40DEB7FD07E0712B5
:10028C000437E4F9E9FF3395E0FE741A2FF5827414
:10029C000012042D09E9B415EB7FD07E0712043748
:0202AC0080FED2
:03002300020026B2
:10002600C0E0C0F0C083C082C0D075D000C000C0A0
:1000360001C002C003C004C005C006C00720980363
:1000460002013BC298900062E02421F8A69978212B
:10005600E6FFB44505E004F08005900062E4F09008
:100066000062E0C3940A500302013BEF644560035B
:100076000201317822E66453600302013108E66426
:100086005060030201317825E6FF644C704908E6AA
:100096006445704308E66444703D08E6FEB4310FDB
:1000A6007824E6FDB44B02C290EDB44702D290EE3E
:1000B600B4320F7824E6FEB44B02C291EEB4470286
:1000C600D2917828E6B4330F7824E6FEB44B02C208
:1000D60092EEB44702D292EF644A701F7826E6B4D5
:1000E600441908E6B4511408E6B4310F7824E6FF43
:1000F600B44B02D293EFB44702C2937824E6644627
:10010600702908E6644D702308E66451701D08E600
:100116006443701708E6B453101203B8C2A512035D
:10012600BA1203B8C2A51203BA8000900062E4F0C6
:10013600900062E4F0309904C299C200D007D0065C
:10014600D005D004D003D002D001D000D0D0D082C8
:07015600D083D0F0D0E032AD
:030000000202AE4B
:0C02AE00787FE4F6D8FD7581400202F56F
:10015D00EF8DF0A4A8F0CF8CF0A428CE8DF0A42EB6
:02016D00FE2270
:10016F00E88FF0A4CC8BF0A42CFCE98EF0A42CFC2F
:10017F008AF0EDA42CFCEA8EF0A4CDA8F08BF0A4AD
:10018F002DCC3825F0FDE98FF0A42CCD35F0FCEB0C
:10019F008EF0A4FEA9F0EB8FF0A4CFC5F02ECD39D1
:0F01AF00FEE43CFCEAA42DCE35F0FDE43CFC223E
:1001BE00EB9FF5F0EA9E42F0E99D42F0E89C45F097
:0101CE00220E
:0C01CF00ECF0A3EDF0A3EEF0A3EFF022A3
:1001DB00A8828583F0D083D0821201F21201F21231
:1001EB0001F21201F2E473E493A3C583C5F0C58356
:1001FB00C8C582C8F0A3C583C5F0C583C8C582C86E
:01020B0022D0
:1002BA0002020CE493A3F8E493A34003F68001F24C
:1002CA0008DFF48029E493A3F85407240CC8C33345
:1002DA00C4540F4420C8834004F456800146F6DF14
:1002EA00E4800B010204081020408090033AE47E67
:1002FA00019360BCA3FF543F30E509541FFEE49309
:10030A00A360010ECF54C025E060A840B8E493A3CF
:10031A00FAE493A3F8E493A3C8C582C8CAC583CAFA
:10032A00F0A3C8C582C8CAC583CADFE9DEE780BEB2
:0103B7000045
:00000001FF
